S018000064617932305F55534152545F465444492E73726563F8
S11300000C942A000C943F000C943F000C943F0085
S11300100C943F000C943F000C943F000C943F0060
S11300200C943F000C943F000C943F000C943F0050
S11300300C943F000C943F000C943F000C943F0040
S11300400C943F000C943F000C943F000C943F0030
S11300500C943F0011241FBECFE5D8E0DEBFCDBF16
S113006010E0A0E6B0E0EAECF0E002C005900D92EA
S1130070A037B107D9F70E9441000C9463000C9497
S113008000000E94480080E690E00E945400FBCFEC
S113009010BC83E389B988E18AB98EE880BD0895EC
S11300A05D9BFECF8CB90895CF93DF93EC018881DB
S11300B0882331F021960E94500089918111FBCF51
S10D00C0DF91CF910895F894FFCF6B
S11300CA48656C6C6F20576F726C64210D0A0000CE
S9030000FC
