
7_seg_increarse_decrease_interrupt.elf:     file format elf32-avr

Sections:
Idx Name          Size      VMA       LMA       File off  Algn
  0 .text         00000128  00000000  00000000  00000074  2**1
                  CONTENTS, ALLOC, LOAD, READONLY, CODE
  1 .data         00000020  00800060  00000128  0000019c  2**0
                  CONTENTS, ALLOC, LOAD, DATA
  2 .comment      00000030  00000000  00000000  000001bc  2**0
                  CONTENTS, READONLY
  3 .note.gnu.avr.deviceinfo 0000003c  00000000  00000000  000001ec  2**2
                  CONTENTS, READONLY
  4 .debug_aranges 00000020  00000000  00000000  00000228  2**0
                  CONTENTS, READONLY, DEBUGGING
  5 .debug_info   0000066b  00000000  00000000  00000248  2**0
                  CONTENTS, READONLY, DEBUGGING
  6 .debug_abbrev 000005bd  00000000  00000000  000008b3  2**0
                  CONTENTS, READONLY, DEBUGGING
  7 .debug_line   00000279  00000000  00000000  00000e70  2**0
                  CONTENTS, READONLY, DEBUGGING
  8 .debug_frame  00000034  00000000  00000000  000010ec  2**2
                  CONTENTS, READONLY, DEBUGGING
  9 .debug_str    0000038e  00000000  00000000  00001120  2**0
                  CONTENTS, READONLY, DEBUGGING
 10 .debug_loc    000000b3  00000000  00000000  000014ae  2**0
                  CONTENTS, READONLY, DEBUGGING
 11 .debug_ranges 00000010  00000000  00000000  00001561  2**0
                  CONTENTS, READONLY, DEBUGGING

Disassembly of section .text:

00000000 <__vectors>:
   0:	0c 94 2a 00 	jmp	0x54	; 0x54 <__ctors_end>
   4:	0c 94 3f 00 	jmp	0x7e	; 0x7e <__bad_interrupt>
   8:	0c 94 3f 00 	jmp	0x7e	; 0x7e <__bad_interrupt>
   c:	0c 94 3f 00 	jmp	0x7e	; 0x7e <__bad_interrupt>
  10:	0c 94 3f 00 	jmp	0x7e	; 0x7e <__bad_interrupt>
  14:	0c 94 3f 00 	jmp	0x7e	; 0x7e <__bad_interrupt>
  18:	0c 94 3f 00 	jmp	0x7e	; 0x7e <__bad_interrupt>
  1c:	0c 94 3f 00 	jmp	0x7e	; 0x7e <__bad_interrupt>
  20:	0c 94 3f 00 	jmp	0x7e	; 0x7e <__bad_interrupt>
  24:	0c 94 3f 00 	jmp	0x7e	; 0x7e <__bad_interrupt>
  28:	0c 94 3f 00 	jmp	0x7e	; 0x7e <__bad_interrupt>
  2c:	0c 94 3f 00 	jmp	0x7e	; 0x7e <__bad_interrupt>
  30:	0c 94 3f 00 	jmp	0x7e	; 0x7e <__bad_interrupt>
  34:	0c 94 3f 00 	jmp	0x7e	; 0x7e <__bad_interrupt>
  38:	0c 94 3f 00 	jmp	0x7e	; 0x7e <__bad_interrupt>
  3c:	0c 94 3f 00 	jmp	0x7e	; 0x7e <__bad_interrupt>
  40:	0c 94 3f 00 	jmp	0x7e	; 0x7e <__bad_interrupt>
  44:	0c 94 3f 00 	jmp	0x7e	; 0x7e <__bad_interrupt>
  48:	0c 94 3f 00 	jmp	0x7e	; 0x7e <__bad_interrupt>
  4c:	0c 94 3f 00 	jmp	0x7e	; 0x7e <__bad_interrupt>
  50:	0c 94 3f 00 	jmp	0x7e	; 0x7e <__bad_interrupt>

00000054 <__ctors_end>:
  54:	11 24       	eor	r1, r1
  56:	1f be       	out	0x3f, r1	; 63
  58:	cf e5       	ldi	r28, 0x5F	; 95
  5a:	d8 e0       	ldi	r29, 0x08	; 8
  5c:	de bf       	out	0x3e, r29	; 62
  5e:	cd bf       	out	0x3d, r28	; 61

00000060 <__do_copy_data>:
  60:	10 e0       	ldi	r17, 0x00	; 0
  62:	a0 e6       	ldi	r26, 0x60	; 96
  64:	b0 e0       	ldi	r27, 0x00	; 0
  66:	e8 e2       	ldi	r30, 0x28	; 40
  68:	f1 e0       	ldi	r31, 0x01	; 1
  6a:	02 c0       	rjmp	.+4      	; 0x70 <__do_copy_data+0x10>
  6c:	05 90       	lpm	r0, Z+
  6e:	0d 92       	st	X+, r0
  70:	a0 38       	cpi	r26, 0x80	; 128
  72:	b1 07       	cpc	r27, r17
  74:	d9 f7       	brne	.-10     	; 0x6c <__do_copy_data+0xc>
  76:	0e 94 41 00 	call	0x82	; 0x82 <main>
  7a:	0c 94 92 00 	jmp	0x124	; 0x124 <_exit>

0000007e <__bad_interrupt>:
  7e:	0c 94 00 00 	jmp	0	; 0x0 <__vectors>

00000082 <main>:

#include <avr/io.h>
#include <util/delay.h>

int main(void)
{
  82:	cf 93       	push	r28
  84:	df 93       	push	r29
  86:	cd b7       	in	r28, 0x3d	; 61
  88:	de b7       	in	r29, 0x3e	; 62
  8a:	a0 97       	sbiw	r28, 0x20	; 32
  8c:	0f b6       	in	r0, 0x3f	; 63
  8e:	f8 94       	cli
  90:	de bf       	out	0x3e, r29	; 62
  92:	0f be       	out	0x3f, r0	; 63
  94:	cd bf       	out	0x3d, r28	; 61
	DDRB |= ((1<<0)|(1<<1)|(1<<2)|(1<<3)|(1<<4)|(1<<5)|(1<<6)|(1<<7)); //Set as output
  96:	87 b3       	in	r24, 0x17	; 23
  98:	8f ef       	ldi	r24, 0xFF	; 255
  9a:	87 bb       	out	0x17, r24	; 23
	int segment[16] = {0x3F, 0x06, 0x5B, 0x4F, 0x66, 0x6D, 0x7D, 0x07, 0x7F, 0x6F, 0x77, 0x7C, 0x39, 0x5E, 0x79, 0x71};
  9c:	80 e2       	ldi	r24, 0x20	; 32
  9e:	e0 e6       	ldi	r30, 0x60	; 96
  a0:	f0 e0       	ldi	r31, 0x00	; 0
  a2:	de 01       	movw	r26, r28
  a4:	11 96       	adiw	r26, 0x01	; 1
  a6:	01 90       	ld	r0, Z+
  a8:	0d 92       	st	X+, r0
  aa:	8a 95       	dec	r24
  ac:	e1 f7       	brne	.-8      	; 0xa6 <main+0x24>
	//					0	,1	 , 2   ,3	 ,4    ,5	 ,6	   ,7	 ,8	   ,9	 ,10=A	,11=B ,12=C,13=D ,14=E ,15=F
	int i = 0;
  ae:	80 e0       	ldi	r24, 0x00	; 0
  b0:	90 e0       	ldi	r25, 0x00	; 0
  b2:	05 c0       	rjmp	.+10     	; 0xbe <main+0x3c>
	while(1)
	{
			//PORTB = segment[i];
					
			if(i<0 || i>15)
  b4:	80 31       	cpi	r24, 0x10	; 16
  b6:	91 05       	cpc	r25, r1
  b8:	10 f0       	brcs	.+4      	; 0xbe <main+0x3c>
			{
				i=0;
  ba:	80 e0       	ldi	r24, 0x00	; 0
  bc:	90 e0       	ldi	r25, 0x00	; 0
			}
			
			if(bit_is_clear(PIND,3))
  be:	83 99       	sbic	0x10, 3	; 16
  c0:	16 c0       	rjmp	.+44     	; 0xee <main+0x6c>
			{
				PORTB = segment[i];
  c2:	fc 01       	movw	r30, r24
  c4:	ee 0f       	add	r30, r30
  c6:	ff 1f       	adc	r31, r31
  c8:	21 e0       	ldi	r18, 0x01	; 1
  ca:	30 e0       	ldi	r19, 0x00	; 0
  cc:	2c 0f       	add	r18, r28
  ce:	3d 1f       	adc	r19, r29
  d0:	e2 0f       	add	r30, r18
  d2:	f3 1f       	adc	r31, r19
  d4:	20 81       	ld	r18, Z
  d6:	28 bb       	out	0x18, r18	; 24
	#else
		//round up by default
		__ticks_dc = (uint32_t)(ceil(fabs(__tmp)));
	#endif

	__builtin_avr_delay_cycles(__ticks_dc);
  d8:	3f ef       	ldi	r19, 0xFF	; 255
  da:	44 e3       	ldi	r20, 0x34	; 52
  dc:	2c e0       	ldi	r18, 0x0C	; 12
  de:	31 50       	subi	r19, 0x01	; 1
  e0:	40 40       	sbci	r20, 0x00	; 0
  e2:	20 40       	sbci	r18, 0x00	; 0
  e4:	e1 f7       	brne	.-8      	; 0xde <main+0x5c>
  e6:	00 c0       	rjmp	.+0      	; 0xe8 <main+0x66>
  e8:	00 00       	nop
				_delay_ms(500);
				i++;	
  ea:	01 96       	adiw	r24, 0x01	; 1
  ec:	e3 cf       	rjmp	.-58     	; 0xb4 <main+0x32>
			}
			else if(bit_is_clear(PIND,2))
  ee:	82 99       	sbic	0x10, 2	; 16
  f0:	e1 cf       	rjmp	.-62     	; 0xb4 <main+0x32>
			{
				i--;
  f2:	01 97       	sbiw	r24, 0x01	; 1
				if(i<0)
  f4:	12 f4       	brpl	.+4      	; 0xfa <main+0x78>
				{
					i=15;
  f6:	8f e0       	ldi	r24, 0x0F	; 15
  f8:	90 e0       	ldi	r25, 0x00	; 0
				}
				PORTB = segment[i];
  fa:	fc 01       	movw	r30, r24
  fc:	ee 0f       	add	r30, r30
  fe:	ff 1f       	adc	r31, r31
 100:	21 e0       	ldi	r18, 0x01	; 1
 102:	30 e0       	ldi	r19, 0x00	; 0
 104:	2c 0f       	add	r18, r28
 106:	3d 1f       	adc	r19, r29
 108:	e2 0f       	add	r30, r18
 10a:	f3 1f       	adc	r31, r19
 10c:	20 81       	ld	r18, Z
 10e:	28 bb       	out	0x18, r18	; 24
 110:	3f ef       	ldi	r19, 0xFF	; 255
 112:	44 e3       	ldi	r20, 0x34	; 52
 114:	2c e0       	ldi	r18, 0x0C	; 12
 116:	31 50       	subi	r19, 0x01	; 1
 118:	40 40       	sbci	r20, 0x00	; 0
 11a:	20 40       	sbci	r18, 0x00	; 0
 11c:	e1 f7       	brne	.-8      	; 0x116 <main+0x94>
 11e:	00 c0       	rjmp	.+0      	; 0x120 <main+0x9e>
 120:	00 00       	nop
 122:	c8 cf       	rjmp	.-112    	; 0xb4 <main+0x32>

00000124 <_exit>:
 124:	f8 94       	cli

00000126 <__stop_program>:
 126:	ff cf       	rjmp	.-2      	; 0x126 <__stop_program>
